{
  "_format": "hh-sol-artifact-1",
  "contractName": "BBFLModel",
  "sourceName": "contracts/BBFLModel.sol",
  "abi": [
    {
      "inputs": [
        {
          "internalType": "string",
          "name": "modelHash",
          "type": "string"
        },
        {
          "internalType": "uint256",
          "name": "score",
          "type": "uint256"
        },
        {
          "internalType": "uint256",
          "name": "epoch",
          "type": "uint256"
        },
        {
          "internalType": "uint256",
          "name": "learningRate",
          "type": "uint256"
        },
        {
          "internalType": "uint256",
          "name": "batchSize",
          "type": "uint256"
        },
        {
          "internalType": "uint256",
          "name": "accuracy",
          "type": "uint256"
        }
      ],
      "stateMutability": "nonpayable",
      "type": "constructor"
    },
    {
      "anonymous": false,
      "inputs": [
        {
          "indexed": false,
          "internalType": "uint256",
          "name": "id",
          "type": "uint256"
        },
        {
          "indexed": false,
          "internalType": "uint256",
          "name": "updateId",
          "type": "uint256"
        },
        {
          "indexed": false,
          "internalType": "address",
          "name": "owner",
          "type": "address"
        },
        {
          "indexed": false,
          "internalType": "string",
          "name": "modelHash",
          "type": "string"
        },
        {
          "indexed": false,
          "internalType": "uint256",
          "name": "timestamp",
          "type": "uint256"
        }
      ],
      "name": "ModelAdded",
      "type": "event"
    },
    {
      "anonymous": false,
      "inputs": [
        {
          "indexed": false,
          "internalType": "uint256",
          "name": "id",
          "type": "uint256"
        },
        {
          "indexed": false,
          "internalType": "address",
          "name": "owner",
          "type": "address"
        },
        {
          "indexed": false,
          "internalType": "uint256",
          "name": "score",
          "type": "uint256"
        },
        {
          "indexed": false,
          "internalType": "string",
          "name": "modelHash",
          "type": "string"
        },
        {
          "indexed": false,
          "internalType": "uint256",
          "name": "epoch",
          "type": "uint256"
        },
        {
          "indexed": false,
          "internalType": "uint256",
          "name": "learningRate",
          "type": "uint256"
        },
        {
          "indexed": false,
          "internalType": "uint256",
          "name": "batchSize",
          "type": "uint256"
        },
        {
          "indexed": false,
          "internalType": "uint256",
          "name": "prevModelId",
          "type": "uint256"
        },
        {
          "indexed": false,
          "internalType": "uint256",
          "name": "accuracy",
          "type": "uint256"
        },
        {
          "indexed": false,
          "internalType": "uint256",
          "name": "timestamp",
          "type": "uint256"
        }
      ],
      "name": "ModelUpdateAdded",
      "type": "event"
    },
    {
      "anonymous": false,
      "inputs": [
        {
          "indexed": false,
          "internalType": "uint256",
          "name": "round",
          "type": "uint256"
        },
        {
          "indexed": false,
          "internalType": "uint256",
          "name": "timestamp",
          "type": "uint256"
        }
      ],
      "name": "RoundEnded",
      "type": "event"
    },
    {
      "inputs": [],
      "name": "getLatestModel",
      "outputs": [
        {
          "components": [
            {
              "internalType": "uint256",
              "name": "id",
              "type": "uint256"
            },
            {
              "internalType": "uint256",
              "name": "upadteId",
              "type": "uint256"
            },
            {
              "internalType": "address",
              "name": "owner",
              "type": "address"
            },
            {
              "internalType": "string",
              "name": "modelHash",
              "type": "string"
            },
            {
              "internalType": "uint256",
              "name": "timestamp",
              "type": "uint256"
            }
          ],
          "internalType": "struct BBFLModel.Model",
          "name": "",
          "type": "tuple"
        }
      ],
      "stateMutability": "view",
      "type": "function"
    },
    {
      "inputs": [],
      "name": "getModelUpdates",
      "outputs": [
        {
          "components": [
            {
              "internalType": "uint256",
              "name": "id",
              "type": "uint256"
            },
            {
              "internalType": "address",
              "name": "owner",
              "type": "address"
            },
            {
              "internalType": "uint256",
              "name": "score",
              "type": "uint256"
            },
            {
              "internalType": "string",
              "name": "modelHash",
              "type": "string"
            },
            {
              "internalType": "uint256",
              "name": "epoch",
              "type": "uint256"
            },
            {
              "internalType": "uint256",
              "name": "learningRate",
              "type": "uint256"
            },
            {
              "internalType": "uint256",
              "name": "batchSize",
              "type": "uint256"
            },
            {
              "internalType": "uint256",
              "name": "prevModelId",
              "type": "uint256"
            },
            {
              "internalType": "uint256",
              "name": "accuracy",
              "type": "uint256"
            },
            {
              "internalType": "uint256",
              "name": "timestamp",
              "type": "uint256"
            }
          ],
          "internalType": "struct BBFLModel.ModelUpdate[]",
          "name": "",
          "type": "tuple[]"
        }
      ],
      "stateMutability": "view",
      "type": "function"
    },
    {
      "inputs": [],
      "name": "getModels",
      "outputs": [
        {
          "components": [
            {
              "internalType": "uint256",
              "name": "id",
              "type": "uint256"
            },
            {
              "internalType": "uint256",
              "name": "upadteId",
              "type": "uint256"
            },
            {
              "internalType": "address",
              "name": "owner",
              "type": "address"
            },
            {
              "internalType": "string",
              "name": "modelHash",
              "type": "string"
            },
            {
              "internalType": "uint256",
              "name": "timestamp",
              "type": "uint256"
            }
          ],
          "internalType": "struct BBFLModel.Model[]",
          "name": "",
          "type": "tuple[]"
        }
      ],
      "stateMutability": "view",
      "type": "function"
    },
    {
      "inputs": [
        {
          "internalType": "uint256",
          "name": "_round",
          "type": "uint256"
        }
      ],
      "name": "getRoundHighestScoredUpdate",
      "outputs": [
        {
          "components": [
            {
              "internalType": "uint256",
              "name": "id",
              "type": "uint256"
            },
            {
              "internalType": "address",
              "name": "owner",
              "type": "address"
            },
            {
              "internalType": "uint256",
              "name": "score",
              "type": "uint256"
            },
            {
              "internalType": "string",
              "name": "modelHash",
              "type": "string"
            },
            {
              "internalType": "uint256",
              "name": "epoch",
              "type": "uint256"
            },
            {
              "internalType": "uint256",
              "name": "learningRate",
              "type": "uint256"
            },
            {
              "internalType": "uint256",
              "name": "batchSize",
              "type": "uint256"
            },
            {
              "internalType": "uint256",
              "name": "prevModelId",
              "type": "uint256"
            },
            {
              "internalType": "uint256",
              "name": "accuracy",
              "type": "uint256"
            },
            {
              "internalType": "uint256",
              "name": "timestamp",
              "type": "uint256"
            }
          ],
          "internalType": "struct BBFLModel.ModelUpdate",
          "name": "",
          "type": "tuple"
        }
      ],
      "stateMutability": "view",
      "type": "function"
    },
    {
      "inputs": [
        {
          "internalType": "uint256",
          "name": "",
          "type": "uint256"
        }
      ],
      "name": "modelUpdates",
      "outputs": [
        {
          "internalType": "uint256",
          "name": "id",
          "type": "uint256"
        },
        {
          "internalType": "address",
          "name": "owner",
          "type": "address"
        },
        {
          "internalType": "uint256",
          "name": "score",
          "type": "uint256"
        },
        {
          "internalType": "string",
          "name": "modelHash",
          "type": "string"
        },
        {
          "internalType": "uint256",
          "name": "epoch",
          "type": "uint256"
        },
        {
          "internalType": "uint256",
          "name": "learningRate",
          "type": "uint256"
        },
        {
          "internalType": "uint256",
          "name": "batchSize",
          "type": "uint256"
        },
        {
          "internalType": "uint256",
          "name": "prevModelId",
          "type": "uint256"
        },
        {
          "internalType": "uint256",
          "name": "accuracy",
          "type": "uint256"
        },
        {
          "internalType": "uint256",
          "name": "timestamp",
          "type": "uint256"
        }
      ],
      "stateMutability": "view",
      "type": "function"
    },
    {
      "inputs": [
        {
          "internalType": "uint256",
          "name": "",
          "type": "uint256"
        }
      ],
      "name": "models",
      "outputs": [
        {
          "internalType": "uint256",
          "name": "id",
          "type": "uint256"
        },
        {
          "internalType": "uint256",
          "name": "upadteId",
          "type": "uint256"
        },
        {
          "internalType": "address",
          "name": "owner",
          "type": "address"
        },
        {
          "internalType": "string",
          "name": "modelHash",
          "type": "string"
        },
        {
          "internalType": "uint256",
          "name": "timestamp",
          "type": "uint256"
        }
      ],
      "stateMutability": "view",
      "type": "function"
    },
    {
      "inputs": [],
      "name": "owner",
      "outputs": [
        {
          "internalType": "address",
          "name": "",
          "type": "address"
        }
      ],
      "stateMutability": "view",
      "type": "function"
    },
    {
      "inputs": [],
      "name": "round",
      "outputs": [
        {
          "internalType": "uint256",
          "name": "",
          "type": "uint256"
        }
      ],
      "stateMutability": "view",
      "type": "function"
    },
    {
      "inputs": [],
      "name": "updatesPerRound",
      "outputs": [
        {
          "internalType": "uint256",
          "name": "",
          "type": "uint256"
        }
      ],
      "stateMutability": "view",
      "type": "function"
    },
    {
      "inputs": [
        {
          "internalType": "string",
          "name": "modelHash",
          "type": "string"
        },
        {
          "internalType": "uint256",
          "name": "score",
          "type": "uint256"
        },
        {
          "internalType": "uint256",
          "name": "epoch",
          "type": "uint256"
        },
        {
          "internalType": "uint256",
          "name": "learningRate",
          "type": "uint256"
        },
        {
          "internalType": "uint256",
          "name": "batchSize",
          "type": "uint256"
        },
        {
          "internalType": "uint256",
          "name": "prevModelId",
          "type": "uint256"
        },
        {
          "internalType": "uint256",
          "name": "accuracy",
          "type": "uint256"
        }
      ],
      "name": "uploadModelUpdate",
      "outputs": [
        {
          "internalType": "uint256",
          "name": "",
          "type": "uint256"
        }
      ],
      "stateMutability": "nonpayable",
      "type": "function"
    }
  ],
  "bytecode": "0x60806040526001600355600a60045534801561001a57600080fd5b50604051612e79380380612e79833981810160405281019061003c9190610567565b33600260006101000a81548173ffffffffffffffffffffffffffffffffffffffff021916908373ffffffffffffffffffffffffffffffffffffffff160217905550600160405180610140016040528060008152602001600260009054906101000a900473ffffffffffffffffffffffffffffffffffffffff1673ffffffffffffffffffffffffffffffffffffffff168152602001878152602001888152602001868152602001858152602001848152602001600081526020018381526020014281525090806001815401808255809150506001900390600052602060002090600a02016000909190919091506000820151816000015560208201518160010160006101000a81548173ffffffffffffffffffffffffffffffffffffffff021916908373ffffffffffffffffffffffffffffffffffffffff1602179055506040820151816002015560608201518160030190816101989190610827565b506080820151816004015560a0820151816005015560c0820151816006015560e082015181600701556101008201518160080155610120820151816009015550507f98431f0e4b1c0469aae3457227871c4a7501352d617df3c48408a5c18ec7f7fb6000600260009054906101000a900473ffffffffffffffffffffffffffffffffffffffff1687898888886000894260405161023e9a999897969594939291906109ce565b60405180910390a160006040518060a001604052806000815260200160008152602001600260009054906101000a900473ffffffffffffffffffffffffffffffffffffffff1673ffffffffffffffffffffffffffffffffffffffff168152602001888152602001428152509080600181540180825580915050600190039060005260206000209060050201600090919091909150600082015181600001556020820151816001015560408201518160020160006101000a81548173ffffffffffffffffffffffffffffffffffffffff021916908373ffffffffffffffffffffffffffffffffffffffff16021790555060608201518160030190816103429190610827565b506080820151816004015550507f5441fe96fb5b7af8ce040ed353977b1fb051b195d80ae2ea192453f6847470ca600080600260009054906101000a900473ffffffffffffffffffffffffffffffffffffffff1689426040516103a9959493929190610a71565b60405180910390a1505050505050610acb565b6000604051905090565b600080fd5b600080fd5b600080fd5b600080fd5b6000601f19601f8301169050919050565b7f4e487b7100000000000000000000000000000000000000000000000000000000600052604160045260246000fd5b610423826103da565b810181811067ffffffffffffffff82111715610442576104416103eb565b5b80604052505050565b60006104556103bc565b9050610461828261041a565b919050565b600067ffffffffffffffff821115610481576104806103eb565b5b61048a826103da565b9050602081019050919050565b60005b838110156104b557808201518184015260208101905061049a565b60008484015250505050565b60006104d46104cf84610466565b61044b565b9050828152602081018484840111156104f0576104ef6103d5565b5b6104fb848285610497565b509392505050565b600082601f830112610518576105176103d0565b5b81516105288482602086016104c1565b91505092915050565b6000819050919050565b61054481610531565b811461054f57600080fd5b50565b6000815190506105618161053b565b92915050565b60008060008060008060c08789031215610584576105836103c6565b5b600087015167ffffffffffffffff8111156105a2576105a16103cb565b5b6105ae89828a01610503565b96505060206105bf89828a01610552565b95505060406105d089828a01610552565b94505060606105e189828a01610552565b93505060806105f289828a01610552565b92505060a061060389828a01610552565b9150509295509295509295565b600081519050919050565b7f4e487b7100000000000000000000000000000000000000000000000000000000600052602260045260246000fd5b6000600282049050600182168061066257607f821691505b6020821081036106755761067461061b565b5b50919050565b60008190508160005260206000209050919050565b60006020601f8301049050919050565b600082821b905092915050565b6000600883026106dd7fffffffffffffffffffffffffffffffffffffffffffffffffffffffffffffffff826106a0565b6106e786836106a0565b95508019841693508086168417925050509392505050565b6000819050919050565b600061072461071f61071a84610531565b6106ff565b610531565b9050919050565b6000819050919050565b61073e83610709565b61075261074a8261072b565b8484546106ad565b825550505050565b600090565b61076761075a565b610772818484610735565b505050565b5b818110156107965761078b60008261075f565b600181019050610778565b5050565b601f8211156107db576107ac8161067b565b6107b584610690565b810160208510156107c4578190505b6107d86107d085610690565b830182610777565b50505b505050565b600082821c905092915050565b60006107fe600019846008026107e0565b1980831691505092915050565b600061081783836107ed565b9150826002028217905092915050565b61083082610610565b67ffffffffffffffff811115610849576108486103eb565b5b610853825461064a565b61085e82828561079a565b600060209050601f831160018114610891576000841561087f578287015190505b610889858261080b565b8655506108f1565b601f19841661089f8661067b565b60005b828110156108c7578489015182556001820191506020850194506020810190506108a2565b868310156108e457848901516108e0601f8916826107ed565b8355505b6001600288020188555050505b505050505050565b6000819050919050565b600061091e610919610914846108f9565b6106ff565b610531565b9050919050565b61092e81610903565b82525050565b600073ffffffffffffffffffffffffffffffffffffffff82169050919050565b600061095f82610934565b9050919050565b61096f81610954565b82525050565b61097e81610531565b82525050565b600082825260208201905092915050565b60006109a082610610565b6109aa8185610984565b93506109ba818560208601610497565b6109c3816103da565b840191505092915050565b6000610140820190506109e4600083018d610925565b6109f1602083018c610966565b6109fe604083018b610975565b8181036060830152610a10818a610995565b9050610a1f6080830189610975565b610a2c60a0830188610975565b610a3960c0830187610975565b610a4660e0830186610925565b610a54610100830185610975565b610a62610120830184610975565b9b9a5050505050505050505050565b600060a082019050610a866000830188610925565b610a936020830187610925565b610aa06040830186610966565b8181036060830152610ab28185610995565b9050610ac16080830184610975565b9695505050505050565b61239f80610ada6000396000f3fe608060405234801561001057600080fd5b506004361061009e5760003560e01c80636cb60de4116100665780636cb60de4146101735780638da5cb5b14610191578063d5a86fd2146101af578063e2b4cc1e146101cd578063fad8701d146101eb5761009e565b806309817d45146100a3578063146ca531146100c15780633c52f7ca146100df5780636874ae681461010f5780636a030ca91461013f575b600080fd5b6100ab610224565b6040516100b8919061160d565b60405180910390f35b6100c9610389565b6040516100d6919061163e565b60405180910390f35b6100f960048036038101906100f49190611699565b61038f565b60405161010691906117a0565b60405180910390f35b610129600480360381019061012491906118f7565b6106f2565b604051610136919061163e565b60405180910390f35b61015960048036038101906101549190611699565b610aa1565b60405161016a959493929190611a0e565b60405180910390f35b61017b610b8f565b6040516101889190611c04565b60405180910390f35b610199610d27565b6040516101a69190611c26565b60405180910390f35b6101b7610d4d565b6040516101c4919061163e565b60405180910390f35b6101d5610d53565b6040516101e29190611cb7565b60405180910390f35b61020560048036038101906102009190611699565b610ea1565b60405161021b9a99989796959493929190611cd9565b60405180910390f35b60606000805480602002602001604051908101604052809291908181526020016000905b8282101561038057838290600052602060002090600502016040518060a001604052908160008201548152602001600182015481526020016002820160009054906101000a900473ffffffffffffffffffffffffffffffffffffffff1673ffffffffffffffffffffffffffffffffffffffff1673ffffffffffffffffffffffffffffffffffffffff1681526020016003820180546102e590611dab565b80601f016020809104026020016040519081016040528092919081815260200182805461031190611dab565b801561035e5780601f106103335761010080835404028352916020019161035e565b820191906000526020600020905b81548152906001019060200180831161034157829003601f168201915b5050505050815260200160048201548152505081526020019060010190610248565b50505050905090565b60035481565b61039761133d565b60006004546001846103a99190611e0b565b6103b39190611e3f565b90506000600454846103c59190611e3f565b90506000600183815481106103dd576103dc611e81565b5b90600052602060002090600a020160405180610140016040529081600082015481526020016001820160009054906101000a900473ffffffffffffffffffffffffffffffffffffffff1673ffffffffffffffffffffffffffffffffffffffff1673ffffffffffffffffffffffffffffffffffffffff1681526020016002820154815260200160038201805461047190611dab565b80601f016020809104026020016040519081016040528092919081815260200182805461049d90611dab565b80156104ea5780601f106104bf576101008083540402835291602001916104ea565b820191906000526020600020905b8154815290600101906020018083116104cd57829003601f168201915b505050505081526020016004820154815260200160058201548152602001600682015481526020016007820154815260200160088201548152602001600982015481525050905060008390505b828110156106e65781604001516001828154811061055857610557611e81565b5b90600052602060002090600a02016002015411156106d9576001818154811061058457610583611e81565b5b90600052602060002090600a020160405180610140016040529081600082015481526020016001820160009054906101000a900473ffffffffffffffffffffffffffffffffffffffff1673ffffffffffffffffffffffffffffffffffffffff1673ffffffffffffffffffffffffffffffffffffffff1681526020016002820154815260200160038201805461061890611dab565b80601f016020809104026020016040519081016040528092919081815260200182805461064490611dab565b80156106915780601f1061066657610100808354040283529160200191610691565b820191906000526020600020905b81548152906001019060200180831161067457829003601f168201915b50505050508152602001600482015481526020016005820154815260200160068201548152602001600782015481526020016008820154815260200160098201548152505091505b8080600101915050610537565b50809350505050919050565b6000600260009054906101000a900473ffffffffffffffffffffffffffffffffffffffff1673ffffffffffffffffffffffffffffffffffffffff163373ffffffffffffffffffffffffffffffffffffffff1614610784576040517f08c379a000000000000000000000000000000000000000000000000000000000815260040161077b90611f22565b60405180910390fd5b60018054905083106107cb576040517f08c379a00000000000000000000000000000000000000000000000000000000081526004016107c290611f8e565b60405180910390fd5b600260009054906101000a900473ffffffffffffffffffffffffffffffffffffffff1673ffffffffffffffffffffffffffffffffffffffff166001848154811061081857610817611e81565b5b90600052602060002090600a020160010160009054906101000a900473ffffffffffffffffffffffffffffffffffffffff1673ffffffffffffffffffffffffffffffffffffffff16146108a0576040517f08c379a000000000000000000000000000000000000000000000000000000000815260040161089790611f8e565b60405180910390fd5b600060018054905090506001604051806101400160405280838152602001600260009054906101000a900473ffffffffffffffffffffffffffffffffffffffff1673ffffffffffffffffffffffffffffffffffffffff1681526020018a81526020018b81526020018981526020018881526020018781526020018681526020018581526020014281525090806001815401808255809150506001900390600052602060002090600a02016000909190919091506000820151816000015560208201518160010160006101000a81548173ffffffffffffffffffffffffffffffffffffffff021916908373ffffffffffffffffffffffffffffffffffffffff1602179055506040820151816002015560608201518160030190816109c3919061215a565b506080820151816004015560a0820151816005015560c0820151816006015560e082015181600701556101008201518160080155610120820151816009015550507f98431f0e4b1c0469aae3457227871c4a7501352d617df3c48408a5c18ec7f7fb81600260009054906101000a900473ffffffffffffffffffffffffffffffffffffffff168a8c8b8b8b8b8b42604051610a679a99989796959493929190611cd9565b60405180910390a16000600454600180549050610a84919061225b565b03610a9257610a91610fad565b5b80915050979650505050505050565b60008181548110610ab157600080fd5b90600052602060002090600502016000915090508060000154908060010154908060020160009054906101000a900473ffffffffffffffffffffffffffffffffffffffff1690806003018054610b0690611dab565b80601f0160208091040260200160405190810160405280929190818152602001828054610b3290611dab565b8015610b7f5780601f10610b5457610100808354040283529160200191610b7f565b820191906000526020600020905b815481529060010190602001808311610b6257829003601f168201915b5050505050908060040154905085565b60606001805480602002602001604051908101604052809291908181526020016000905b82821015610d1e57838290600052602060002090600a020160405180610140016040529081600082015481526020016001820160009054906101000a900473ffffffffffffffffffffffffffffffffffffffff1673ffffffffffffffffffffffffffffffffffffffff1673ffffffffffffffffffffffffffffffffffffffff16815260200160028201548152602001600382018054610c5190611dab565b80601f0160208091040260200160405190810160405280929190818152602001828054610c7d90611dab565b8015610cca5780601f10610c9f57610100808354040283529160200191610cca565b820191906000526020600020905b815481529060010190602001808311610cad57829003601f168201915b50505050508152602001600482015481526020016005820154815260200160068201548152602001600782015481526020016008820154815260200160098201548152505081526020019060010190610bb3565b50505050905090565b600260009054906101000a900473ffffffffffffffffffffffffffffffffffffffff1681565b60045481565b610d5b6113a6565b60006001600354610d6c9190611e0b565b81548110610d7d57610d7c611e81565b5b90600052602060002090600502016040518060a001604052908160008201548152602001600182015481526020016002820160009054906101000a900473ffffffffffffffffffffffffffffffffffffffff1673ffffffffffffffffffffffffffffffffffffffff1673ffffffffffffffffffffffffffffffffffffffff168152602001600382018054610e1090611dab565b80601f0160208091040260200160405190810160405280929190818152602001828054610e3c90611dab565b8015610e895780601f10610e5e57610100808354040283529160200191610e89565b820191906000526020600020905b815481529060010190602001808311610e6c57829003601f168201915b50505050508152602001600482015481525050905090565b60018181548110610eb157600080fd5b90600052602060002090600a02016000915090508060000154908060010160009054906101000a900473ffffffffffffffffffffffffffffffffffffffff1690806002015490806003018054610f0690611dab565b80601f0160208091040260200160405190810160405280929190818152602001828054610f3290611dab565b8015610f7f5780601f10610f5457610100808354040283529160200191610f7f565b820191906000526020600020905b815481529060010190602001808311610f6257829003601f168201915b505050505090806004015490806005015490806006015490806007015490806008015490806009015490508a565b6000610fba60035461038f565b9050610fc9816000015161101f565b60036000815480929190610fdc9061228c565b91905055507f8868888cc18628a149bc88cc32a91976ab30e2cd9aececb0cfe184a73fe551f9600354426040516110149291906122d4565b60405180910390a150565b60045460016003546110319190611e0b565b61103b9190611e3f565b811015801561105857506004546003546110559190611e3f565b81105b611097576040517f08c379a000000000000000000000000000000000000000000000000000000000815260040161108e90612349565b60405180910390fd5b6000600182815481106110ad576110ac611e81565b5b90600052602060002090600a020160405180610140016040529081600082015481526020016001820160009054906101000a900473ffffffffffffffffffffffffffffffffffffffff1673ffffffffffffffffffffffffffffffffffffffff1673ffffffffffffffffffffffffffffffffffffffff1681526020016002820154815260200160038201805461114190611dab565b80601f016020809104026020016040519081016040528092919081815260200182805461116d90611dab565b80156111ba5780601f1061118f576101008083540402835291602001916111ba565b820191906000526020600020905b81548152906001019060200180831161119d57829003601f168201915b505050505081526020016004820154815260200160058201548152602001600682015481526020016007820154815260200160088201548152602001600982015481525050905060006040518060a001604052806003548152602001848152602001836020015173ffffffffffffffffffffffffffffffffffffffff16815260200183606001518152602001428152509080600181540180825580915050600190039060005260206000209060050201600090919091909150600082015181600001556020820151816001015560408201518160020160006101000a81548173ffffffffffffffffffffffffffffffffffffffff021916908373ffffffffffffffffffffffffffffffffffffffff16021790555060608201518160030190816112e3919061215a565b506080820151816004015550507f5441fe96fb5b7af8ce040ed353977b1fb051b195d80ae2ea192453f6847470ca600354838360200151846060015142604051611331959493929190611a0e565b60405180910390a15050565b60405180610140016040528060008152602001600073ffffffffffffffffffffffffffffffffffffffff16815260200160008152602001606081526020016000815260200160008152602001600081526020016000815260200160008152602001600081525090565b6040518060a001604052806000815260200160008152602001600073ffffffffffffffffffffffffffffffffffffffff16815260200160608152602001600081525090565b600081519050919050565b600082825260208201905092915050565b6000819050602082019050919050565b6000819050919050565b61142a81611417565b82525050565b600073ffffffffffffffffffffffffffffffffffffffff82169050919050565b600061145b82611430565b9050919050565b61146b81611450565b82525050565b600081519050919050565b600082825260208201905092915050565b60005b838110156114ab578082015181840152602081019050611490565b60008484015250505050565b6000601f19601f8301169050919050565b60006114d382611471565b6114dd818561147c565b93506114ed81856020860161148d565b6114f6816114b7565b840191505092915050565b600060a0830160008301516115196000860182611421565b50602083015161152c6020860182611421565b50604083015161153f6040860182611462565b506060830151848203606086015261155782826114c8565b915050608083015161156c6080860182611421565b508091505092915050565b60006115838383611501565b905092915050565b6000602082019050919050565b60006115a3826113eb565b6115ad81856113f6565b9350836020820285016115bf85611407565b8060005b858110156115fb57848403895281516115dc8582611577565b94506115e78361158b565b925060208a019950506001810190506115c3565b50829750879550505050505092915050565b600060208201905081810360008301526116278184611598565b905092915050565b61163881611417565b82525050565b6000602082019050611653600083018461162f565b92915050565b6000604051905090565b600080fd5b600080fd5b61167681611417565b811461168157600080fd5b50565b6000813590506116938161166d565b92915050565b6000602082840312156116af576116ae611663565b5b60006116bd84828501611684565b91505092915050565b6000610140830160008301516116df6000860182611421565b5060208301516116f26020860182611462565b5060408301516117056040860182611421565b506060830151848203606086015261171d82826114c8565b91505060808301516117326080860182611421565b5060a083015161174560a0860182611421565b5060c083015161175860c0860182611421565b5060e083015161176b60e0860182611421565b50610100830151611780610100860182611421565b50610120830151611795610120860182611421565b508091505092915050565b600060208201905081810360008301526117ba81846116c6565b905092915050565b600080fd5b600080fd5b7f4e487b7100000000000000000000000000000000000000000000000000000000600052604160045260246000fd5b611804826114b7565b810181811067ffffffffffffffff82111715611823576118226117cc565b5b80604052505050565b6000611836611659565b905061184282826117fb565b919050565b600067ffffffffffffffff821115611862576118616117cc565b5b61186b826114b7565b9050602081019050919050565b82818337600083830152505050565b600061189a61189584611847565b61182c565b9050828152602081018484840111156118b6576118b56117c7565b5b6118c1848285611878565b509392505050565b600082601f8301126118de576118dd6117c2565b5b81356118ee848260208601611887565b91505092915050565b600080600080600080600060e0888a03121561191657611915611663565b5b600088013567ffffffffffffffff81111561193457611933611668565b5b6119408a828b016118c9565b97505060206119518a828b01611684565b96505060406119628a828b01611684565b95505060606119738a828b01611684565b94505060806119848a828b01611684565b93505060a06119958a828b01611684565b92505060c06119a68a828b01611684565b91505092959891949750929550565b6119be81611450565b82525050565b600082825260208201905092915050565b60006119e082611471565b6119ea81856119c4565b93506119fa81856020860161148d565b611a03816114b7565b840191505092915050565b600060a082019050611a23600083018861162f565b611a30602083018761162f565b611a3d60408301866119b5565b8181036060830152611a4f81856119d5565b9050611a5e608083018461162f565b9695505050505050565b600081519050919050565b600082825260208201905092915050565b6000819050602082019050919050565b600061014083016000830151611aad6000860182611421565b506020830151611ac06020860182611462565b506040830151611ad36040860182611421565b5060608301518482036060860152611aeb82826114c8565b9150506080830151611b006080860182611421565b5060a0830151611b1360a0860182611421565b5060c0830151611b2660c0860182611421565b5060e0830151611b3960e0860182611421565b50610100830151611b4e610100860182611421565b50610120830151611b63610120860182611421565b508091505092915050565b6000611b7a8383611a94565b905092915050565b6000602082019050919050565b6000611b9a82611a68565b611ba48185611a73565b935083602082028501611bb685611a84565b8060005b85811015611bf25784840389528151611bd38582611b6e565b9450611bde83611b82565b925060208a01995050600181019050611bba565b50829750879550505050505092915050565b60006020820190508181036000830152611c1e8184611b8f565b905092915050565b6000602082019050611c3b60008301846119b5565b92915050565b600060a083016000830151611c596000860182611421565b506020830151611c6c6020860182611421565b506040830151611c7f6040860182611462565b5060608301518482036060860152611c9782826114c8565b9150506080830151611cac6080860182611421565b508091505092915050565b60006020820190508181036000830152611cd18184611c41565b905092915050565b600061014082019050611cef600083018d61162f565b611cfc602083018c6119b5565b611d09604083018b61162f565b8181036060830152611d1b818a6119d5565b9050611d2a608083018961162f565b611d3760a083018861162f565b611d4460c083018761162f565b611d5160e083018661162f565b611d5f61010083018561162f565b611d6d61012083018461162f565b9b9a5050505050505050505050565b7f4e487b7100000000000000000000000000000000000000000000000000000000600052602260045260246000fd5b60006002820490506001821680611dc357607f821691505b602082108103611dd657611dd5611d7c565b5b50919050565b7f4e487b7100000000000000000000000000000000000000000000000000000000600052601160045260246000fd5b6000611e1682611417565b9150611e2183611417565b9250828203905081811115611e3957611e38611ddc565b5b92915050565b6000611e4a82611417565b9150611e5583611417565b9250828202611e6381611417565b91508282048414831517611e7a57611e79611ddc565b5b5092915050565b7f4e487b7100000000000000000000000000000000000000000000000000000000600052603260045260246000fd5b7f4f6e6c79206f776e65722063616e2063616c6c20746869732066756e6374696f60008201527f6e00000000000000000000000000000000000000000000000000000000000000602082015250565b6000611f0c6021836119c4565b9150611f1782611eb0565b604082019050919050565b60006020820190508181036000830152611f3b81611eff565b9050919050565b7f496e76616c696420707265764d6f64656c496400000000000000000000000000600082015250565b6000611f786013836119c4565b9150611f8382611f42565b602082019050919050565b60006020820190508181036000830152611fa781611f6b565b9050919050565b60008190508160005260206000209050919050565b60006020601f8301049050919050565b600082821b905092915050565b6000600883026120107fffffffffffffffffffffffffffffffffffffffffffffffffffffffffffffffff82611fd3565b61201a8683611fd3565b95508019841693508086168417925050509392505050565b6000819050919050565b600061205761205261204d84611417565b612032565b611417565b9050919050565b6000819050919050565b6120718361203c565b61208561207d8261205e565b848454611fe0565b825550505050565b600090565b61209a61208d565b6120a5818484612068565b505050565b5b818110156120c9576120be600082612092565b6001810190506120ab565b5050565b601f82111561210e576120df81611fae565b6120e884611fc3565b810160208510156120f7578190505b61210b61210385611fc3565b8301826120aa565b50505b505050565b600082821c905092915050565b600061213160001984600802612113565b1980831691505092915050565b600061214a8383612120565b9150826002028217905092915050565b61216382611471565b67ffffffffffffffff81111561217c5761217b6117cc565b5b6121868254611dab565b6121918282856120cd565b600060209050601f8311600181146121c457600084156121b2578287015190505b6121bc858261213e565b865550612224565b601f1984166121d286611fae565b60005b828110156121fa578489015182556001820191506020850194506020810190506121d5565b868310156122175784890151612213601f891682612120565b8355505b6001600288020188555050505b505050505050565b7f4e487b7100000000000000000000000000000000000000000000000000000000600052601260045260246000fd5b600061226682611417565b915061227183611417565b9250826122815761228061222c565b5b828206905092915050565b600061229782611417565b91507fffffffffffffffffffffffffffffffffffffffffffffffffffffffffffffffff82036122c9576122c8611ddc565b5b600182019050919050565b60006040820190506122e9600083018561162f565b6122f6602083018461162f565b9392505050565b7f496e76616c696420757064617465496400000000000000000000000000000000600082015250565b60006123336010836119c4565b915061233e826122fd565b602082019050919050565b6000602082019050818103600083015261236281612326565b905091905056fea26469706673582212208029a68d9674ff9881f189347f80408ad61d3dacdd1f29702ee5d54e0af2c74364736f6c634300081c0033",
  "linkReferences": {},
  "deployedLinkReferences": {}
}